{
  "_format": "hh-sol-artifact-1",
  "contractName": "NFT",
  "sourceName": "contracts/NFT.sol",
  "abi": [
    {
      "inputs": [
        {
          "internalType": "string",
          "name": "tokenURI",
          "type": "string"
        },
        {
          "internalType": "address",
          "name": "marketAddress",
          "type": "address"
        },
        {
          "internalType": "uint256",
          "name": "_fee",
          "type": "uint256"
        },
        {
          "internalType": "address",
          "name": "_owner",
          "type": "address"
        }
      ],
      "stateMutability": "nonpayable",
      "type": "constructor"
    },
    {
      "anonymous": false,
      "inputs": [
        {
          "indexed": true,
          "internalType": "address",
          "name": "account",
          "type": "address"
        },
        {
          "indexed": true,
          "internalType": "address",
          "name": "operator",
          "type": "address"
        },
        {
          "indexed": false,
          "internalType": "bool",
          "name": "approved",
          "type": "bool"
        }
      ],
      "name": "ApprovalForAll",
      "type": "event"
    },
    {
      "anonymous": false,
      "inputs": [
        {
          "indexed": true,
          "internalType": "address",
          "name": "previousOwner",
          "type": "address"
        },
        {
          "indexed": true,
          "internalType": "address",
          "name": "newOwner",
          "type": "address"
        }
      ],
      "name": "OwnershipTransferred",
      "type": "event"
    },
    {
      "anonymous": false,
      "inputs": [
        {
          "indexed": true,
          "internalType": "address",
          "name": "operator",
          "type": "address"
        },
        {
          "indexed": true,
          "internalType": "address",
          "name": "from",
          "type": "address"
        },
        {
          "indexed": true,
          "internalType": "address",
          "name": "to",
          "type": "address"
        },
        {
          "indexed": false,
          "internalType": "uint256[]",
          "name": "ids",
          "type": "uint256[]"
        },
        {
          "indexed": false,
          "internalType": "uint256[]",
          "name": "values",
          "type": "uint256[]"
        }
      ],
      "name": "TransferBatch",
      "type": "event"
    },
    {
      "anonymous": false,
      "inputs": [
        {
          "indexed": true,
          "internalType": "address",
          "name": "operator",
          "type": "address"
        },
        {
          "indexed": true,
          "internalType": "address",
          "name": "from",
          "type": "address"
        },
        {
          "indexed": true,
          "internalType": "address",
          "name": "to",
          "type": "address"
        },
        {
          "indexed": false,
          "internalType": "uint256",
          "name": "id",
          "type": "uint256"
        },
        {
          "indexed": false,
          "internalType": "uint256",
          "name": "value",
          "type": "uint256"
        }
      ],
      "name": "TransferSingle",
      "type": "event"
    },
    {
      "anonymous": false,
      "inputs": [
        {
          "indexed": false,
          "internalType": "string",
          "name": "value",
          "type": "string"
        },
        {
          "indexed": true,
          "internalType": "uint256",
          "name": "id",
          "type": "uint256"
        }
      ],
      "name": "URI",
      "type": "event"
    },
    {
      "inputs": [
        {
          "internalType": "address",
          "name": "account",
          "type": "address"
        },
        {
          "internalType": "uint256",
          "name": "id",
          "type": "uint256"
        }
      ],
      "name": "balanceOf",
      "outputs": [
        {
          "internalType": "uint256",
          "name": "",
          "type": "uint256"
        }
      ],
      "stateMutability": "view",
      "type": "function"
    },
    {
      "inputs": [
        {
          "internalType": "address[]",
          "name": "accounts",
          "type": "address[]"
        },
        {
          "internalType": "uint256[]",
          "name": "ids",
          "type": "uint256[]"
        }
      ],
      "name": "balanceOfBatch",
      "outputs": [
        {
          "internalType": "uint256[]",
          "name": "",
          "type": "uint256[]"
        }
      ],
      "stateMutability": "view",
      "type": "function"
    },
    {
      "inputs": [
        {
          "internalType": "uint256",
          "name": "id",
          "type": "uint256"
        }
      ],
      "name": "burn",
      "outputs": [],
      "stateMutability": "nonpayable",
      "type": "function"
    },
    {
      "inputs": [],
      "name": "currentId",
      "outputs": [
        {
          "internalType": "uint256[2]",
          "name": "",
          "type": "uint256[2]"
        }
      ],
      "stateMutability": "view",
      "type": "function"
    },
    {
      "inputs": [],
      "name": "fee",
      "outputs": [
        {
          "internalType": "uint256",
          "name": "",
          "type": "uint256"
        }
      ],
      "stateMutability": "view",
      "type": "function"
    },
    {
      "inputs": [],
      "name": "getCreator",
      "outputs": [
        {
          "internalType": "address",
          "name": "",
          "type": "address"
        }
      ],
      "stateMutability": "view",
      "type": "function"
    },
    {
      "inputs": [],
      "name": "getFee",
      "outputs": [
        {
          "internalType": "uint256",
          "name": "",
          "type": "uint256"
        }
      ],
      "stateMutability": "view",
      "type": "function"
    },
    {
      "inputs": [
        {
          "internalType": "address",
          "name": "account",
          "type": "address"
        },
        {
          "internalType": "address",
          "name": "operator",
          "type": "address"
        }
      ],
      "name": "isApprovedForAll",
      "outputs": [
        {
          "internalType": "bool",
          "name": "",
          "type": "bool"
        }
      ],
      "stateMutability": "view",
      "type": "function"
    },
    {
      "inputs": [
        {
          "internalType": "address",
          "name": "receiver",
          "type": "address"
        }
      ],
      "name": "mint",
      "outputs": [],
      "stateMutability": "nonpayable",
      "type": "function"
    },
    {
      "inputs": [],
      "name": "owner",
      "outputs": [
        {
          "internalType": "address",
          "name": "",
          "type": "address"
        }
      ],
      "stateMutability": "view",
      "type": "function"
    },
    {
      "inputs": [],
      "name": "renounceOwnership",
      "outputs": [],
      "stateMutability": "nonpayable",
      "type": "function"
    },
    {
      "inputs": [
        {
          "internalType": "address",
          "name": "from",
          "type": "address"
        },
        {
          "internalType": "address",
          "name": "to",
          "type": "address"
        },
        {
          "internalType": "uint256[]",
          "name": "ids",
          "type": "uint256[]"
        },
        {
          "internalType": "uint256[]",
          "name": "amounts",
          "type": "uint256[]"
        },
        {
          "internalType": "bytes",
          "name": "data",
          "type": "bytes"
        }
      ],
      "name": "safeBatchTransferFrom",
      "outputs": [],
      "stateMutability": "nonpayable",
      "type": "function"
    },
    {
      "inputs": [
        {
          "internalType": "address",
          "name": "from",
          "type": "address"
        },
        {
          "internalType": "address",
          "name": "to",
          "type": "address"
        },
        {
          "internalType": "uint256",
          "name": "id",
          "type": "uint256"
        },
        {
          "internalType": "uint256",
          "name": "amount",
          "type": "uint256"
        },
        {
          "internalType": "bytes",
          "name": "data",
          "type": "bytes"
        }
      ],
      "name": "safeTransferFrom",
      "outputs": [],
      "stateMutability": "nonpayable",
      "type": "function"
    },
    {
      "inputs": [
        {
          "internalType": "address",
          "name": "operator",
          "type": "address"
        },
        {
          "internalType": "bool",
          "name": "approved",
          "type": "bool"
        }
      ],
      "name": "setApprovalForAll",
      "outputs": [],
      "stateMutability": "nonpayable",
      "type": "function"
    },
    {
      "inputs": [
        {
          "internalType": "bytes4",
          "name": "interfaceId",
          "type": "bytes4"
        }
      ],
      "name": "supportsInterface",
      "outputs": [
        {
          "internalType": "bool",
          "name": "",
          "type": "bool"
        }
      ],
      "stateMutability": "view",
      "type": "function"
    },
    {
      "inputs": [
        {
          "internalType": "address",
          "name": "newOwner",
          "type": "address"
        }
      ],
      "name": "transferOwnership",
      "outputs": [],
      "stateMutability": "nonpayable",
      "type": "function"
    },
    {
      "inputs": [
        {
          "internalType": "uint256",
          "name": "",
          "type": "uint256"
        }
      ],
      "name": "uri",
      "outputs": [
        {
          "internalType": "string",
          "name": "",
          "type": "string"
        }
      ],
      "stateMutability": "view",
      "type": "function"
    }
  ],
  "bytecode": "0x60806040523480156200001157600080fd5b5060405162003b6438038062003b648339818101604052810190620000379190620004a1565b836200004981620000cf60201b60201c565b506200006a6200005e620000eb60201b60201c565b620000f360201b60201c565b6200007d836001620001b960201b60201c565b8160048190555080600660006101000a81548173ffffffffffffffffffffffffffffffffffffffff021916908373ffffffffffffffffffffffffffffffffffffffff16021790555050505050620007eb565b8060029080519060200190620000e792919062000351565b5050565b600033905090565b6000600360009054906101000a900473ffffffffffffffffffffffffffffffffffffffff16905081600360006101000a81548173ffffffffffffffffffffffffffffffffffffffff021916908373ffffffffffffffffffffffffffffffffffffffff1602179055508173ffffffffffffffffffffffffffffffffffffffff168173ffffffffffffffffffffffffffffffffffffffff167f8be0079c531659141344cd1fd0a4f28419497f9722a3daafe3b4186f6b6457e060405160405180910390a35050565b620001db620001cd620000eb60201b60201c565b8383620001df60201b60201c565b5050565b8173ffffffffffffffffffffffffffffffffffffffff168373ffffffffffffffffffffffffffffffffffffffff16141562000251576040517f08c379a000000000000000000000000000000000000000000000000000000000815260040162000248906200057b565b60405180910390fd5b80600160008573ffffffffffffffffffffffffffffffffffffffff1673ffffffffffffffffffffffffffffffffffffffff16815260200190815260200160002060008473ffffffffffffffffffffffffffffffffffffffff1673ffffffffffffffffffffffffffffffffffffffff16815260200190815260200160002060006101000a81548160ff0219169083151502179055508173ffffffffffffffffffffffffffffffffffffffff168373ffffffffffffffffffffffffffffffffffffffff167f17307eab39ab6107e8899845ad3d59bd9653f200f220920489ca2b5937696c31836040516200034491906200055e565b60405180910390a3505050565b8280546200035f906200068d565b90600052602060002090601f016020900481019282620003835760008555620003cf565b82601f106200039e57805160ff1916838001178555620003cf565b82800160010185558215620003cf579182015b82811115620003ce578251825591602001919060010190620003b1565b5b509050620003de9190620003e2565b5090565b5b80821115620003fd576000816000905550600101620003e3565b5090565b6000620004186200041284620005c6565b6200059d565b9050828152602081018484840111156200043157600080fd5b6200043e84828562000657565b509392505050565b6000815190506200045781620007b7565b92915050565b600082601f8301126200046f57600080fd5b81516200048184826020860162000401565b91505092915050565b6000815190506200049b81620007d1565b92915050565b60008060008060808587031215620004b857600080fd5b600085015167ffffffffffffffff811115620004d357600080fd5b620004e1878288016200045d565b9450506020620004f48782880162000446565b935050604062000507878288016200048a565b92505060606200051a8782880162000446565b91505092959194509250565b620005318162000621565b82525050565b600062000546602983620005fc565b9150620005538262000768565b604082019050919050565b600060208201905062000575600083018462000526565b92915050565b60006020820190508181036000830152620005968162000537565b9050919050565b6000620005a9620005bc565b9050620005b78282620006c3565b919050565b6000604051905090565b600067ffffffffffffffff821115620005e457620005e362000728565b5b620005ef8262000757565b9050602081019050919050565b600082825260208201905092915050565b60006200061a826200062d565b9050919050565b60008115159050919050565b600073ffffffffffffffffffffffffffffffffffffffff82169050919050565b6000819050919050565b60005b83811015620006775780820151818401526020810190506200065a565b8381111562000687576000848401525b50505050565b60006002820490506001821680620006a657607f821691505b60208210811415620006bd57620006bc620006f9565b5b50919050565b620006ce8262000757565b810181811067ffffffffffffffff82111715620006f057620006ef62000728565b5b80604052505050565b7f4e487b7100000000000000000000000000000000000000000000000000000000600052602260045260246000fd5b7f4e487b7100000000000000000000000000000000000000000000000000000000600052604160045260246000fd5b6000601f19601f8301169050919050565b7f455243313135353a2073657474696e6720617070726f76616c2073746174757360008201527f20666f722073656c660000000000000000000000000000000000000000000000602082015250565b620007c2816200060d565b8114620007ce57600080fd5b50565b620007dc816200064d565b8114620007e857600080fd5b50565b61336980620007fb6000396000f3fe608060405234801561001057600080fd5b506004361061010a5760003560e01c8063715018a6116100a2578063ddca3f4311610071578063ddca3f43146102a3578063e00dd161146102c1578063e985e9c5146102df578063f242432a1461030f578063f2fde38b1461032b5761010a565b8063715018a6146102415780638da5cb5b1461024b578063a22cb46514610269578063ced72f87146102855761010a565b80632eb2c2d6116100de5780632eb2c2d6146101bd57806342966c68146101d95780634e1273f4146101f55780636a627842146102255761010a565b8062fdd58e1461010f57806301ffc9a71461013f5780630e89341c1461016f5780630ee2cb101461019f575b600080fd5b61012960048036038101906101249190612198565b610347565b60405161013691906129b1565b60405180910390f35b61015960048036038101906101549190612240565b610410565b6040516101669190612794565b60405180910390f35b61018960048036038101906101849190612292565b6104f2565b60405161019691906127af565b60405180910390f35b6101a7610586565b6040516101b49190612643565b60405180910390f35b6101d760048036038101906101d2919061200e565b6105b0565b005b6101f360048036038101906101ee9190612292565b610651565b005b61020f600480360381019061020a91906121d4565b6106dc565b60405161021c919061273b565b60405180910390f35b61023f600480360381019061023a9190611fa9565b61088d565b005b61024961093b565b005b6102536109c3565b6040516102609190612643565b60405180910390f35b610283600480360381019061027e919061215c565b6109ed565b005b61028d610a03565b60405161029a91906129b1565b60405180910390f35b6102ab610a0d565b6040516102b891906129b1565b60405180910390f35b6102c9610a13565b6040516102d69190612720565b60405180910390f35b6102f960048036038101906102f49190611fd2565b610a40565b6040516103069190612794565b60405180910390f35b610329600480360381019061032491906120cd565b610ad4565b005b61034560048036038101906103409190611fa9565b610b75565b005b60008073ffffffffffffffffffffffffffffffffffffffff168373ffffffffffffffffffffffffffffffffffffffff1614156103b8576040517f08c379a00000000000000000000000000000000000000000000000000000000081526004016103af90612811565b60405180910390fd5b60008083815260200190815260200160002060008473ffffffffffffffffffffffffffffffffffffffff1673ffffffffffffffffffffffffffffffffffffffff16815260200190815260200160002054905092915050565b60007fd9b67a26000000000000000000000000000000000000000000000000000000007bffffffffffffffffffffffffffffffffffffffffffffffffffffffff1916827bffffffffffffffffffffffffffffffffffffffffffffffffffffffff191614806104db57507f0e89341c000000000000000000000000000000000000000000000000000000007bffffffffffffffffffffffffffffffffffffffffffffffffffffffff1916827bffffffffffffffffffffffffffffffffffffffffffffffffffffffff1916145b806104eb57506104ea82610c6d565b5b9050919050565b60606002805461050190612c4d565b80601f016020809104026020016040519081016040528092919081815260200182805461052d90612c4d565b801561057a5780601f1061054f5761010080835404028352916020019161057a565b820191906000526020600020905b81548152906001019060200180831161055d57829003601f168201915b50505050509050919050565b6000600660009054906101000a900473ffffffffffffffffffffffffffffffffffffffff16905090565b6105b8610cd7565b73ffffffffffffffffffffffffffffffffffffffff168573ffffffffffffffffffffffffffffffffffffffff1614806105fe57506105fd856105f8610cd7565b610a40565b5b61063d576040517f08c379a0000000000000000000000000000000000000000000000000000000008152600401610634906128b1565b60405180910390fd5b61064a8585858585610cdf565b5050505050565b610659610cd7565b73ffffffffffffffffffffffffffffffffffffffff166106776109c3565b73ffffffffffffffffffffffffffffffffffffffff16146106cd576040517f08c379a00000000000000000000000000000000000000000000000000000000081526004016106c490612911565b60405180910390fd5b6106d93382600161103f565b50565b60608151835114610722576040517f08c379a000000000000000000000000000000000000000000000000000000000815260040161071990612951565b60405180910390fd5b6000835167ffffffffffffffff811115610765577f4e487b7100000000000000000000000000000000000000000000000000000000600052604160045260246000fd5b6040519080825280602002602001820160405280156107935781602001602082028036833780820191505090505b50905060005b84518110156108825761082c8582815181106107de577f4e487b7100000000000000000000000000000000000000000000000000000000600052603260045260246000fd5b602002602001015185838151811061081f577f4e487b7100000000000000000000000000000000000000000000000000000000600052603260045260246000fd5b6020026020010151610347565b828281518110610865577f4e487b7100000000000000000000000000000000000000000000000000000000600052603260045260246000fd5b6020026020010181815250508061087b90612cb0565b9050610799565b508091505092915050565b610895610cd7565b73ffffffffffffffffffffffffffffffffffffffff166108b36109c3565b73ffffffffffffffffffffffffffffffffffffffff1614610909576040517f08c379a000000000000000000000000000000000000000000000000000000000815260040161090090612911565b60405180910390fd5b610913600561125c565b610938816109216005611272565b600160405180602001604052806000815250611280565b50565b610943610cd7565b73ffffffffffffffffffffffffffffffffffffffff166109616109c3565b73ffffffffffffffffffffffffffffffffffffffff16146109b7576040517f08c379a00000000000000000000000000000000000000000000000000000000081526004016109ae90612911565b60405180910390fd5b6109c16000611416565b565b6000600360009054906101000a900473ffffffffffffffffffffffffffffffffffffffff16905090565b6109ff6109f8610cd7565b83836114dc565b5050565b6000600454905090565b60045481565b610a1b611d8a565b6040518060400160405280610a306005611272565b8152602001600454815250905090565b6000600160008473ffffffffffffffffffffffffffffffffffffffff1673ffffffffffffffffffffffffffffffffffffffff16815260200190815260200160002060008373ffffffffffffffffffffffffffffffffffffffff1673ffffffffffffffffffffffffffffffffffffffff16815260200190815260200160002060009054906101000a900460ff16905092915050565b610adc610cd7565b73ffffffffffffffffffffffffffffffffffffffff168573ffffffffffffffffffffffffffffffffffffffff161480610b225750610b2185610b1c610cd7565b610a40565b5b610b61576040517f08c379a0000000000000000000000000000000000000000000000000000000008152600401610b5890612871565b60405180910390fd5b610b6e8585858585611649565b5050505050565b610b7d610cd7565b73ffffffffffffffffffffffffffffffffffffffff16610b9b6109c3565b73ffffffffffffffffffffffffffffffffffffffff1614610bf1576040517f08c379a0000000000000000000000000000000000000000000000000000000008152600401610be890612911565b60405180910390fd5b600073ffffffffffffffffffffffffffffffffffffffff168173ffffffffffffffffffffffffffffffffffffffff161415610c61576040517f08c379a0000000000000000000000000000000000000000000000000000000008152600401610c5890612831565b60405180910390fd5b610c6a81611416565b50565b60007f01ffc9a7000000000000000000000000000000000000000000000000000000007bffffffffffffffffffffffffffffffffffffffffffffffffffffffff1916827bffffffffffffffffffffffffffffffffffffffffffffffffffffffff1916149050919050565b600033905090565b8151835114610d23576040517f08c379a0000000000000000000000000000000000000000000000000000000008152600401610d1a90612971565b60405180910390fd5b600073ffffffffffffffffffffffffffffffffffffffff168473ffffffffffffffffffffffffffffffffffffffff161415610d93576040517f08c379a0000000000000000000000000000000000000000000000000000000008152600401610d8a90612891565b60405180910390fd5b6000610d9d610cd7565b9050610dad8187878787876118cb565b60005b8451811015610faa576000858281518110610df4577f4e487b7100000000000000000000000000000000000000000000000000000000600052603260045260246000fd5b602002602001015190506000858381518110610e39577f4e487b7100000000000000000000000000000000000000000000000000000000600052603260045260246000fd5b60200260200101519050600080600084815260200190815260200160002060008b73ffffffffffffffffffffffffffffffffffffffff1673ffffffffffffffffffffffffffffffffffffffff16815260200190815260200160002054905081811015610eda576040517f08c379a0000000000000000000000000000000000000000000000000000000008152600401610ed1906128f1565b60405180910390fd5b81810360008085815260200190815260200160002060008c73ffffffffffffffffffffffffffffffffffffffff1673ffffffffffffffffffffffffffffffffffffffff168152602001908152602001600020819055508160008085815260200190815260200160002060008b73ffffffffffffffffffffffffffffffffffffffff1673ffffffffffffffffffffffffffffffffffffffff1681526020019081526020016000206000828254610f8f9190612b41565b9250508190555050505080610fa390612cb0565b9050610db0565b508473ffffffffffffffffffffffffffffffffffffffff168673ffffffffffffffffffffffffffffffffffffffff168273ffffffffffffffffffffffffffffffffffffffff167f4a39dc06d4c0dbc64b70af90fd698a233a518aa5d07e595d983b8c0526c8f7fb878760405161102192919061275d565b60405180910390a46110378187878787876118d3565b505050505050565b600073ffffffffffffffffffffffffffffffffffffffff168373ffffffffffffffffffffffffffffffffffffffff1614156110af576040517f08c379a00000000000000000000000000000000000000000000000000000000081526004016110a6906128d1565b60405180910390fd5b60006110b9610cd7565b90506110e9818560006110cb87611aba565b6110d487611aba565b604051806020016040528060008152506118cb565b600080600085815260200190815260200160002060008673ffffffffffffffffffffffffffffffffffffffff1673ffffffffffffffffffffffffffffffffffffffff16815260200190815260200160002054905082811015611180576040517f08c379a000000000000000000000000000000000000000000000000000000000815260040161117790612851565b60405180910390fd5b82810360008086815260200190815260200160002060008773ffffffffffffffffffffffffffffffffffffffff1673ffffffffffffffffffffffffffffffffffffffff16815260200190815260200160002081905550600073ffffffffffffffffffffffffffffffffffffffff168573ffffffffffffffffffffffffffffffffffffffff168373ffffffffffffffffffffffffffffffffffffffff167fc3d58168c5ae7397731d063d5bbf3d657854427343f4c083240f7aacaa2d0f62878760405161124d9291906129cc565b60405180910390a45050505050565b6001816000016000828254019250508190555050565b600081600001549050919050565b600073ffffffffffffffffffffffffffffffffffffffff168473ffffffffffffffffffffffffffffffffffffffff1614156112f0576040517f08c379a00000000000000000000000000000000000000000000000000000000081526004016112e790612991565b60405180910390fd5b60006112fa610cd7565b905061131b8160008761130c88611aba565b61131588611aba565b876118cb565b8260008086815260200190815260200160002060008773ffffffffffffffffffffffffffffffffffffffff1673ffffffffffffffffffffffffffffffffffffffff168152602001908152602001600020600082825461137a9190612b41565b925050819055508473ffffffffffffffffffffffffffffffffffffffff16600073ffffffffffffffffffffffffffffffffffffffff168273ffffffffffffffffffffffffffffffffffffffff167fc3d58168c5ae7397731d063d5bbf3d657854427343f4c083240f7aacaa2d0f6287876040516113f89291906129cc565b60405180910390a461140f81600087878787611b80565b5050505050565b6000600360009054906101000a900473ffffffffffffffffffffffffffffffffffffffff16905081600360006101000a81548173ffffffffffffffffffffffffffffffffffffffff021916908373ffffffffffffffffffffffffffffffffffffffff1602179055508173ffffffffffffffffffffffffffffffffffffffff168173ffffffffffffffffffffffffffffffffffffffff167f8be0079c531659141344cd1fd0a4f28419497f9722a3daafe3b4186f6b6457e060405160405180910390a35050565b8173ffffffffffffffffffffffffffffffffffffffff168373ffffffffffffffffffffffffffffffffffffffff16141561154b576040517f08c379a000000000000000000000000000000000000000000000000000000000815260040161154290612931565b60405180910390fd5b80600160008573ffffffffffffffffffffffffffffffffffffffff1673ffffffffffffffffffffffffffffffffffffffff16815260200190815260200160002060008473ffffffffffffffffffffffffffffffffffffffff1673ffffffffffffffffffffffffffffffffffffffff16815260200190815260200160002060006101000a81548160ff0219169083151502179055508173ffffffffffffffffffffffffffffffffffffffff168373ffffffffffffffffffffffffffffffffffffffff167f17307eab39ab6107e8899845ad3d59bd9653f200f220920489ca2b5937696c318360405161163c9190612794565b60405180910390a3505050565b600073ffffffffffffffffffffffffffffffffffffffff168473ffffffffffffffffffffffffffffffffffffffff1614156116b9576040517f08c379a00000000000000000000000000000000000000000000000000000000081526004016116b090612891565b60405180910390fd5b60006116c3610cd7565b90506116e38187876116d488611aba565b6116dd88611aba565b876118cb565b600080600086815260200190815260200160002060008873ffffffffffffffffffffffffffffffffffffffff1673ffffffffffffffffffffffffffffffffffffffff1681526020019081526020016000205490508381101561177a576040517f08c379a0000000000000000000000000000000000000000000000000000000008152600401611771906128f1565b60405180910390fd5b83810360008087815260200190815260200160002060008973ffffffffffffffffffffffffffffffffffffffff1673ffffffffffffffffffffffffffffffffffffffff168152602001908152602001600020819055508360008087815260200190815260200160002060008873ffffffffffffffffffffffffffffffffffffffff1673ffffffffffffffffffffffffffffffffffffffff168152602001908152602001600020600082825461182f9190612b41565b925050819055508573ffffffffffffffffffffffffffffffffffffffff168773ffffffffffffffffffffffffffffffffffffffff168373ffffffffffffffffffffffffffffffffffffffff167fc3d58168c5ae7397731d063d5bbf3d657854427343f4c083240f7aacaa2d0f6288886040516118ac9291906129cc565b60405180910390a46118c2828888888888611b80565b50505050505050565b505050505050565b6118f28473ffffffffffffffffffffffffffffffffffffffff16611d67565b15611ab2578373ffffffffffffffffffffffffffffffffffffffff1663bc197c8187878686866040518663ffffffff1660e01b815260040161193895949392919061265e565b602060405180830381600087803b15801561195257600080fd5b505af192505050801561198357506040513d601f19601f820116820180604052508101906119809190612269565b60015b611a295761198f612d86565b806308c379a014156119ec57506119a4613241565b806119af57506119ee565b806040517f08c379a00000000000000000000000000000000000000000000000000000000081526004016119e391906127af565b60405180910390fd5b505b6040517f08c379a0000000000000000000000000000000000000000000000000000000008152600401611a20906127d1565b60405180910390fd5b63bc197c8160e01b7bffffffffffffffffffffffffffffffffffffffffffffffffffffffff1916817bffffffffffffffffffffffffffffffffffffffffffffffffffffffff191614611ab0576040517f08c379a0000000000000000000000000000000000000000000000000000000008152600401611aa7906127f1565b60405180910390fd5b505b505050505050565b60606000600167ffffffffffffffff811115611aff577f4e487b7100000000000000000000000000000000000000000000000000000000600052604160045260246000fd5b604051908082528060200260200182016040528015611b2d5781602001602082028036833780820191505090505b5090508281600081518110611b6b577f4e487b7100000000000000000000000000000000000000000000000000000000600052603260045260246000fd5b60200260200101818152505080915050919050565b611b9f8473ffffffffffffffffffffffffffffffffffffffff16611d67565b15611d5f578373ffffffffffffffffffffffffffffffffffffffff1663f23a6e6187878686866040518663ffffffff1660e01b8152600401611be59594939291906126c6565b602060405180830381600087803b158015611bff57600080fd5b505af1925050508015611c3057506040513d601f19601f82011682018060405250810190611c2d9190612269565b60015b611cd657611c3c612d86565b806308c379a01415611c995750611c51613241565b80611c5c5750611c9b565b806040517f08c379a0000000000000000000000000000000000000000000000000000000008152600401611c9091906127af565b60405180910390fd5b505b6040517f08c379a0000000000000000000000000000000000000000000000000000000008152600401611ccd906127d1565b60405180910390fd5b63f23a6e6160e01b7bffffffffffffffffffffffffffffffffffffffffffffffffffffffff1916817bffffffffffffffffffffffffffffffffffffffffffffffffffffffff191614611d5d576040517f08c379a0000000000000000000000000000000000000000000000000000000008152600401611d54906127f1565b60405180910390fd5b505b505050505050565b6000808273ffffffffffffffffffffffffffffffffffffffff163b119050919050565b6040518060400160405280600290602082028036833780820191505090505090565b6000611dbf611dba84612a1a565b6129f5565b90508083825260208201905082856020860282011115611dde57600080fd5b60005b85811015611e0e5781611df48882611ec2565b845260208401935060208301925050600181019050611de1565b5050509392505050565b6000611e2b611e2684612a46565b6129f5565b90508083825260208201905082856020860282011115611e4a57600080fd5b60005b85811015611e7a5781611e608882611f94565b845260208401935060208301925050600181019050611e4d565b5050509392505050565b6000611e97611e9284612a72565b6129f5565b905082815260208101848484011115611eaf57600080fd5b611eba848285612c0b565b509392505050565b600081359050611ed1816132d7565b92915050565b600082601f830112611ee857600080fd5b8135611ef8848260208601611dac565b91505092915050565b600082601f830112611f1257600080fd5b8135611f22848260208601611e18565b91505092915050565b600081359050611f3a816132ee565b92915050565b600081359050611f4f81613305565b92915050565b600081519050611f6481613305565b92915050565b600082601f830112611f7b57600080fd5b8135611f8b848260208601611e84565b91505092915050565b600081359050611fa38161331c565b92915050565b600060208284031215611fbb57600080fd5b6000611fc984828501611ec2565b91505092915050565b60008060408385031215611fe557600080fd5b6000611ff385828601611ec2565b925050602061200485828601611ec2565b9150509250929050565b600080600080600060a0868803121561202657600080fd5b600061203488828901611ec2565b955050602061204588828901611ec2565b945050604086013567ffffffffffffffff81111561206257600080fd5b61206e88828901611f01565b935050606086013567ffffffffffffffff81111561208b57600080fd5b61209788828901611f01565b925050608086013567ffffffffffffffff8111156120b457600080fd5b6120c088828901611f6a565b9150509295509295909350565b600080600080600060a086880312156120e557600080fd5b60006120f388828901611ec2565b955050602061210488828901611ec2565b945050604061211588828901611f94565b935050606061212688828901611f94565b925050608086013567ffffffffffffffff81111561214357600080fd5b61214f88828901611f6a565b9150509295509295909350565b6000806040838503121561216f57600080fd5b600061217d85828601611ec2565b925050602061218e85828601611f2b565b9150509250929050565b600080604083850312156121ab57600080fd5b60006121b985828601611ec2565b92505060206121ca85828601611f94565b9150509250929050565b600080604083850312156121e757600080fd5b600083013567ffffffffffffffff81111561220157600080fd5b61220d85828601611ed7565b925050602083013567ffffffffffffffff81111561222a57600080fd5b61223685828601611f01565b9150509250929050565b60006020828403121561225257600080fd5b600061226084828501611f40565b91505092915050565b60006020828403121561227b57600080fd5b600061228984828501611f55565b91505092915050565b6000602082840312156122a457600080fd5b60006122b284828501611f94565b91505092915050565b60006122c78383612625565b60208301905092915050565b6122dc81612b97565b82525050565b6122eb81612abd565b6122f58184612b03565b925061230082612aa3565b8060005b8381101561233157815161231887826122bb565b965061232383612ae9565b925050600181019050612304565b505050505050565b600061234482612ac8565b61234e8185612b0e565b935061235983612aad565b8060005b8381101561238a57815161237188826122bb565b975061237c83612af6565b92505060018101905061235d565b5085935050505092915050565b6123a081612ba9565b82525050565b60006123b182612ad3565b6123bb8185612b1f565b93506123cb818560208601612c1a565b6123d481612da8565b840191505092915050565b60006123ea82612ade565b6123f48185612b30565b9350612404818560208601612c1a565b61240d81612da8565b840191505092915050565b6000612425603483612b30565b915061243082612dc6565b604082019050919050565b6000612448602883612b30565b915061245382612e15565b604082019050919050565b600061246b602b83612b30565b915061247682612e64565b604082019050919050565b600061248e602683612b30565b915061249982612eb3565b604082019050919050565b60006124b1602483612b30565b91506124bc82612f02565b604082019050919050565b60006124d4602983612b30565b91506124df82612f51565b604082019050919050565b60006124f7602583612b30565b915061250282612fa0565b604082019050919050565b600061251a603283612b30565b915061252582612fef565b604082019050919050565b600061253d602383612b30565b91506125488261303e565b604082019050919050565b6000612560602a83612b30565b915061256b8261308d565b604082019050919050565b6000612583602083612b30565b915061258e826130dc565b602082019050919050565b60006125a6602983612b30565b91506125b182613105565b604082019050919050565b60006125c9602983612b30565b91506125d482613154565b604082019050919050565b60006125ec602883612b30565b91506125f7826131a3565b604082019050919050565b600061260f602183612b30565b915061261a826131f2565b604082019050919050565b61262e81612c01565b82525050565b61263d81612c01565b82525050565b600060208201905061265860008301846122d3565b92915050565b600060a08201905061267360008301886122d3565b61268060208301876122d3565b81810360408301526126928186612339565b905081810360608301526126a68185612339565b905081810360808301526126ba81846123a6565b90509695505050505050565b600060a0820190506126db60008301886122d3565b6126e860208301876122d3565b6126f56040830186612634565b6127026060830185612634565b818103608083015261271481846123a6565b90509695505050505050565b600060408201905061273560008301846122e2565b92915050565b600060208201905081810360008301526127558184612339565b905092915050565b600060408201905081810360008301526127778185612339565b9050818103602083015261278b8184612339565b90509392505050565b60006020820190506127a96000830184612397565b92915050565b600060208201905081810360008301526127c981846123df565b905092915050565b600060208201905081810360008301526127ea81612418565b9050919050565b6000602082019050818103600083015261280a8161243b565b9050919050565b6000602082019050818103600083015261282a8161245e565b9050919050565b6000602082019050818103600083015261284a81612481565b9050919050565b6000602082019050818103600083015261286a816124a4565b9050919050565b6000602082019050818103600083015261288a816124c7565b9050919050565b600060208201905081810360008301526128aa816124ea565b9050919050565b600060208201905081810360008301526128ca8161250d565b9050919050565b600060208201905081810360008301526128ea81612530565b9050919050565b6000602082019050818103600083015261290a81612553565b9050919050565b6000602082019050818103600083015261292a81612576565b9050919050565b6000602082019050818103600083015261294a81612599565b9050919050565b6000602082019050818103600083015261296a816125bc565b9050919050565b6000602082019050818103600083015261298a816125df565b9050919050565b600060208201905081810360008301526129aa81612602565b9050919050565b60006020820190506129c66000830184612634565b92915050565b60006040820190506129e16000830185612634565b6129ee6020830184612634565b9392505050565b60006129ff612a10565b9050612a0b8282612c7f565b919050565b6000604051905090565b600067ffffffffffffffff821115612a3557612a34612d57565b5b602082029050602081019050919050565b600067ffffffffffffffff821115612a6157612a60612d57565b5b602082029050602081019050919050565b600067ffffffffffffffff821115612a8d57612a8c612d57565b5b612a9682612da8565b9050602081019050919050565b6000819050919050565b6000819050602082019050919050565b600060029050919050565b600081519050919050565b600081519050919050565b600081519050919050565b6000602082019050919050565b6000602082019050919050565b600081905092915050565b600082825260208201905092915050565b600082825260208201905092915050565b600082825260208201905092915050565b6000612b4c82612c01565b9150612b5783612c01565b9250827fffffffffffffffffffffffffffffffffffffffffffffffffffffffffffffffff03821115612b8c57612b8b612cf9565b5b828201905092915050565b6000612ba282612be1565b9050919050565b60008115159050919050565b60007fffffffff0000000000000000000000000000000000000000000000000000000082169050919050565b600073ffffffffffffffffffffffffffffffffffffffff82169050919050565b6000819050919050565b82818337600083830152505050565b60005b83811015612c38578082015181840152602081019050612c1d565b83811115612c47576000848401525b50505050565b60006002820490506001821680612c6557607f821691505b60208210811415612c7957612c78612d28565b5b50919050565b612c8882612da8565b810181811067ffffffffffffffff82111715612ca757612ca6612d57565b5b80604052505050565b6000612cbb82612c01565b91507fffffffffffffffffffffffffffffffffffffffffffffffffffffffffffffffff821415612cee57612ced612cf9565b5b600182019050919050565b7f4e487b7100000000000000000000000000000000000000000000000000000000600052601160045260246000fd5b7f4e487b7100000000000000000000000000000000000000000000000000000000600052602260045260246000fd5b7f4e487b7100000000000000000000000000000000000000000000000000000000600052604160045260246000fd5b600060033d1115612da55760046000803e612da2600051612db9565b90505b90565b6000601f19601f8301169050919050565b60008160e01c9050919050565b7f455243313135353a207472616e7366657220746f206e6f6e204552433131353560008201527f526563656976657220696d706c656d656e746572000000000000000000000000602082015250565b7f455243313135353a204552433131353552656365697665722072656a6563746560008201527f6420746f6b656e73000000000000000000000000000000000000000000000000602082015250565b7f455243313135353a2062616c616e636520717565727920666f7220746865207a60008201527f65726f2061646472657373000000000000000000000000000000000000000000602082015250565b7f4f776e61626c653a206e6577206f776e657220697320746865207a65726f206160008201527f6464726573730000000000000000000000000000000000000000000000000000602082015250565b7f455243313135353a206275726e20616d6f756e7420657863656564732062616c60008201527f616e636500000000000000000000000000000000000000000000000000000000602082015250565b7f455243313135353a2063616c6c6572206973206e6f74206f776e6572206e6f7260008201527f20617070726f7665640000000000000000000000000000000000000000000000602082015250565b7f455243313135353a207472616e7366657220746f20746865207a65726f20616460008201527f6472657373000000000000000000000000000000000000000000000000000000602082015250565b7f455243313135353a207472616e736665722063616c6c6572206973206e6f742060008201527f6f776e6572206e6f7220617070726f7665640000000000000000000000000000602082015250565b7f455243313135353a206275726e2066726f6d20746865207a65726f206164647260008201527f6573730000000000000000000000000000000000000000000000000000000000602082015250565b7f455243313135353a20696e73756666696369656e742062616c616e636520666f60008201527f72207472616e7366657200000000000000000000000000000000000000000000602082015250565b7f4f776e61626c653a2063616c6c6572206973206e6f7420746865206f776e6572600082015250565b7f455243313135353a2073657474696e6720617070726f76616c2073746174757360008201527f20666f722073656c660000000000000000000000000000000000000000000000602082015250565b7f455243313135353a206163636f756e747320616e6420696473206c656e67746860008201527f206d69736d617463680000000000000000000000000000000000000000000000602082015250565b7f455243313135353a2069647320616e6420616d6f756e7473206c656e6774682060008201527f6d69736d61746368000000000000000000000000000000000000000000000000602082015250565b7f455243313135353a206d696e7420746f20746865207a65726f2061646472657360008201527f7300000000000000000000000000000000000000000000000000000000000000602082015250565b600060443d1015613251576132d4565b613259612a10565b60043d036004823e80513d602482011167ffffffffffffffff821117156132815750506132d4565b808201805167ffffffffffffffff81111561329f57505050506132d4565b80602083010160043d0385018111156132bc5750505050506132d4565b6132cb82602001850186612c7f565b82955050505050505b90565b6132e081612b97565b81146132eb57600080fd5b50565b6132f781612ba9565b811461330257600080fd5b50565b61330e81612bb5565b811461331957600080fd5b50565b61332581612c01565b811461333057600080fd5b5056fea2646970667358221220c7293b13b5e522773abeb2bc2ade3c1383ea785429e4ea98218a20c85ffe20f064736f6c63430008040033",
  "linkReferences": {},
  "deployedLinkReferences": {}
}