{
  "_format": "hh-sol-artifact-1",
  "contractName": "NFTMarket",
  "sourceName": "contracts/NFTMarket.sol",
  "abi": [
    {
      "inputs": [
        {
          "internalType": "address",
          "name": "_rewardToken",
          "type": "address"
        }
      ],
      "stateMutability": "nonpayable",
      "type": "constructor"
    },
    {
      "anonymous": false,
      "inputs": [
        {
          "indexed": true,
          "internalType": "uint256",
          "name": "itemId",
          "type": "uint256"
        },
        {
          "indexed": true,
          "internalType": "address",
          "name": "nftContract",
          "type": "address"
        },
        {
          "indexed": false,
          "internalType": "address",
          "name": "collectionAddress",
          "type": "address"
        },
        {
          "indexed": true,
          "internalType": "uint256",
          "name": "tokenId",
          "type": "uint256"
        },
        {
          "indexed": false,
          "internalType": "address",
          "name": "owner",
          "type": "address"
        },
        {
          "indexed": false,
          "internalType": "uint256",
          "name": "price",
          "type": "uint256"
        },
        {
          "indexed": false,
          "internalType": "bool",
          "name": "sold",
          "type": "bool"
        }
      ],
      "name": "MarketItemCreated",
      "type": "event"
    },
    {
      "inputs": [
        {
          "internalType": "address",
          "name": "NFTaddress",
          "type": "address"
        },
        {
          "internalType": "address",
          "name": "collectionAddress",
          "type": "address"
        },
        {
          "internalType": "uint256",
          "name": "id",
          "type": "uint256"
        },
        {
          "internalType": "uint256",
          "name": "price",
          "type": "uint256"
        }
      ],
      "name": "ListNFT",
      "outputs": [],
      "stateMutability": "nonpayable",
      "type": "function"
    },
    {
      "inputs": [],
      "name": "fetchAllCollection",
      "outputs": [
        {
          "components": [
            {
              "internalType": "uint256",
              "name": "itemId",
              "type": "uint256"
            },
            {
              "internalType": "address",
              "name": "nftAddress",
              "type": "address"
            },
            {
              "internalType": "address",
              "name": "collectionAddress",
              "type": "address"
            },
            {
              "internalType": "uint256",
              "name": "tokenId",
              "type": "uint256"
            },
            {
              "internalType": "address payable",
              "name": "owner",
              "type": "address"
            },
            {
              "internalType": "uint256",
              "name": "price",
              "type": "uint256"
            },
            {
              "internalType": "bool",
              "name": "sold",
              "type": "bool"
            }
          ],
          "internalType": "struct NFTMarket.MarketItem[]",
          "name": "",
          "type": "tuple[]"
        }
      ],
      "stateMutability": "view",
      "type": "function"
    },
    {
      "inputs": [
        {
          "internalType": "address",
          "name": "",
          "type": "address"
        },
        {
          "internalType": "address",
          "name": "",
          "type": "address"
        },
        {
          "internalType": "uint256[]",
          "name": "",
          "type": "uint256[]"
        },
        {
          "internalType": "uint256[]",
          "name": "",
          "type": "uint256[]"
        },
        {
          "internalType": "bytes",
          "name": "",
          "type": "bytes"
        }
      ],
      "name": "onERC1155BatchReceived",
      "outputs": [
        {
          "internalType": "bytes4",
          "name": "",
          "type": "bytes4"
        }
      ],
      "stateMutability": "nonpayable",
      "type": "function"
    },
    {
      "inputs": [
        {
          "internalType": "address",
          "name": "",
          "type": "address"
        },
        {
          "internalType": "address",
          "name": "",
          "type": "address"
        },
        {
          "internalType": "uint256",
          "name": "",
          "type": "uint256"
        },
        {
          "internalType": "uint256",
          "name": "",
          "type": "uint256"
        },
        {
          "internalType": "bytes",
          "name": "",
          "type": "bytes"
        }
      ],
      "name": "onERC1155Received",
      "outputs": [
        {
          "internalType": "bytes4",
          "name": "",
          "type": "bytes4"
        }
      ],
      "stateMutability": "nonpayable",
      "type": "function"
    },
    {
      "inputs": [
        {
          "internalType": "uint256",
          "name": "itemId",
          "type": "uint256"
        }
      ],
      "name": "performATransaction",
      "outputs": [],
      "stateMutability": "payable",
      "type": "function"
    },
    {
      "inputs": [
        {
          "internalType": "bytes4",
          "name": "interfaceId",
          "type": "bytes4"
        }
      ],
      "name": "supportsInterface",
      "outputs": [
        {
          "internalType": "bool",
          "name": "",
          "type": "bool"
        }
      ],
      "stateMutability": "view",
      "type": "function"
    }
  ],
  "bytecode": "0x60806040523480156200001157600080fd5b5060405162001ca238038062001ca283398181016040528101906200003791906200009e565b600160008190555080600360006101000a81548173ffffffffffffffffffffffffffffffffffffffff021916908373ffffffffffffffffffffffffffffffffffffffff1602179055505062000118565b6000815190506200009881620000fe565b92915050565b600060208284031215620000b157600080fd5b6000620000c18482850162000087565b91505092915050565b6000620000d782620000de565b9050919050565b600073ffffffffffffffffffffffffffffffffffffffff82169050919050565b6200010981620000ca565b81146200011557600080fd5b50565b611b7a80620001286000396000f3fe6080604052600436106100555760003560e01c806301ffc9a71461005a57806342fcd7c5146100975780637054ef1c146100c2578063762c5ce2146100eb578063bc197c8114610107578063f23a6e6114610144575b600080fd5b34801561006657600080fd5b50610081600480360381019061007c9190611217565b610181565b60405161008e91906115b4565b60405180910390f35b3480156100a357600080fd5b506100ac6101fb565b6040516100b99190611592565b60405180910390f35b3480156100ce57600080fd5b506100e960048036038101906100e491906110fc565b6104c2565b005b61010560048036038101906101009190611240565b610873565b005b34801561011357600080fd5b5061012e6004803603810190610129919061103d565b610d5f565b60405161013b91906115cf565b60405180910390f35b34801561015057600080fd5b5061016b6004803603810190610166919061115f565b610d74565b60405161017891906115cf565b60405180910390f35b60007f4e2312e0000000000000000000000000000000000000000000000000000000007bffffffffffffffffffffffffffffffffffffffffffffffffffffffff1916827bffffffffffffffffffffffffffffffffffffffffffffffffffffffff191614806101f457506101f382610d89565b5b9050919050565b606060006102096001610df3565b905060006102176002610df3565b6102216001610df3565b61022b9190611828565b90506000808267ffffffffffffffff811115610270577f4e487b7100000000000000000000000000000000000000000000000000000000600052604160045260246000fd5b6040519080825280602002602001820160405280156102a957816020015b610296610e17565b81526020019060019003908161028e5790505b50905060005b848110156104b757600460006001836102c89190611747565b815260200190815260200160002060060160009054906101000a900460ff166104a457600460006001836102fc9190611747565b81526020019081526020016000206040518060e0016040529081600082015481526020016001820160009054906101000a900473ffffffffffffffffffffffffffffffffffffffff1673ffffffffffffffffffffffffffffffffffffffff1673ffffffffffffffffffffffffffffffffffffffff1681526020016002820160009054906101000a900473ffffffffffffffffffffffffffffffffffffffff1673ffffffffffffffffffffffffffffffffffffffff1673ffffffffffffffffffffffffffffffffffffffff168152602001600382015481526020016004820160009054906101000a900473ffffffffffffffffffffffffffffffffffffffff1673ffffffffffffffffffffffffffffffffffffffff1673ffffffffffffffffffffffffffffffffffffffff168152602001600582015481526020016006820160009054906101000a900460ff161515151581525050828481518110610489577f4e487b7100000000000000000000000000000000000000000000000000000000600052603260045260246000fd5b60200260200101819052506001836104a19190611747565b92505b80806104af90611934565b9150506102af565b508094505050505090565b60026000541415610508576040517f08c379a00000000000000000000000000000000000000000000000000000000081526004016104ff9061162a565b60405180910390fd5b6002600081905550600084905060008173ffffffffffffffffffffffffffffffffffffffff1662fdd58e33866040518363ffffffff1660e01b8152600401610551929190611569565b60206040518083038186803b15801561056957600080fd5b505afa15801561057d573d6000803e3d6000fd5b505050506040513d601f19601f820116820180604052508101906105a19190611269565b116105e1576040517f08c379a00000000000000000000000000000000000000000000000000000000081526004016105d8906115ea565b60405180910390fd5b6105eb6001610e01565b60006105f76001610df3565b90506040518060e001604052808281526020018773ffffffffffffffffffffffffffffffffffffffff1681526020018673ffffffffffffffffffffffffffffffffffffffff1681526020018581526020013373ffffffffffffffffffffffffffffffffffffffff16815260200184815260200160001515815250600460008381526020019081526020016000206000820151816000015560208201518160010160006101000a81548173ffffffffffffffffffffffffffffffffffffffff021916908373ffffffffffffffffffffffffffffffffffffffff16021790555060408201518160020160006101000a81548173ffffffffffffffffffffffffffffffffffffffff021916908373ffffffffffffffffffffffffffffffffffffffff1602179055506060820151816003015560808201518160040160006101000a81548173ffffffffffffffffffffffffffffffffffffffff021916908373ffffffffffffffffffffffffffffffffffffffff16021790555060a0820151816005015560c08201518160060160006101000a81548160ff0219169083151502179055509050508173ffffffffffffffffffffffffffffffffffffffff1663f242432a33308760016040518563ffffffff1660e01b81526004016107da9493929190611511565b600060405180830381600087803b1580156107f457600080fd5b505af1158015610808573d6000803e3d6000fd5b50505050838673ffffffffffffffffffffffffffffffffffffffff16827f8b5c56fa3ce5fe28f95f3958b2d58be4d9dcb5c55e5d918ae5fc31a9215f5645883388600060405161085b94939291906114cc565b60405180910390a45050600160008190555050505050565b600260005414156108b9576040517f08c379a00000000000000000000000000000000000000000000000000000000081526004016108b09061162a565b60405180910390fd5b60026000819055506000600460008381526020019081526020016000209050600015158160060160009054906101000a900460ff16151514610930576040517f08c379a00000000000000000000000000000000000000000000000000000000081526004016109279061164a565b60405180910390fd5b80600501543414610976576040517f08c379a000000000000000000000000000000000000000000000000000000000815260040161096d9061160a565b60405180910390fd5b60008160010160009054906101000a900473ffffffffffffffffffffffffffffffffffffffff1690508073ffffffffffffffffffffffffffffffffffffffff1663f242432a3033856003015460016040518563ffffffff1660e01b81526004016109e39493929190611511565b600060405180830381600087803b1580156109fd57600080fd5b505af1158015610a11573d6000803e3d6000fd5b5050505060008260010160009054906101000a900473ffffffffffffffffffffffffffffffffffffffff16905060008173ffffffffffffffffffffffffffffffffffffffff1663ced72f876040518163ffffffff1660e01b815260040160206040518083038186803b158015610a8657600080fd5b505afa158015610a9a573d6000803e3d6000fd5b505050506040513d601f19601f82011682018060405250810190610abe9190611269565b905060006103e8828660050154610ad591906117ce565b610adf919061179d565b905060008373ffffffffffffffffffffffffffffffffffffffff16630ee2cb106040518163ffffffff1660e01b815260040160206040518083038186803b158015610b2957600080fd5b505afa158015610b3d573d6000803e3d6000fd5b505050506040513d601f19601f82011682018060405250810190610b619190611014565b90508560040160009054906101000a900473ffffffffffffffffffffffffffffffffffffffff1673ffffffffffffffffffffffffffffffffffffffff166108fc838860050154610bb19190611828565b9081150290604051600060405180830381858888f19350505050158015610bdc573d6000803e3d6000fd5b508073ffffffffffffffffffffffffffffffffffffffff166108fc839081150290604051600060405180830381858888f19350505050158015610c23573d6000803e3d6000fd5b50600360009054906101000a900473ffffffffffffffffffffffffffffffffffffffff1673ffffffffffffffffffffffffffffffffffffffff1663a9059cbb3360648960050154610c7491906117ce565b6040518363ffffffff1660e01b8152600401610c91929190611569565b602060405180830381600087803b158015610cab57600080fd5b505af1158015610cbf573d6000803e3d6000fd5b505050506040513d601f19601f82011682018060405250810190610ce391906111ee565b50338660040160006101000a81548173ffffffffffffffffffffffffffffffffffffffff021916908373ffffffffffffffffffffffffffffffffffffffff16021790555060018660060160006101000a81548160ff021916908315150217905550610d4e6002610e01565b505050505050600160008190555050565b600063bc197c8160e01b905095945050505050565b600063f23a6e6160e01b905095945050505050565b60007f01ffc9a7000000000000000000000000000000000000000000000000000000007bffffffffffffffffffffffffffffffffffffffffffffffffffffffff1916827bffffffffffffffffffffffffffffffffffffffffffffffffffffffff1916149050919050565b600081600001549050919050565b6001816000016000828254019250508190555050565b6040518060e0016040528060008152602001600073ffffffffffffffffffffffffffffffffffffffff168152602001600073ffffffffffffffffffffffffffffffffffffffff16815260200160008152602001600073ffffffffffffffffffffffffffffffffffffffff168152602001600081526020016000151581525090565b6000610eab610ea68461168f565b61166a565b90508083825260208201905082856020860282011115610eca57600080fd5b60005b85811015610efa5781610ee08882610fea565b845260208401935060208301925050600181019050610ecd565b5050509392505050565b6000610f17610f12846116bb565b61166a565b905082815260208101848484011115610f2f57600080fd5b610f3a8482856118f4565b509392505050565b600081359050610f5181611ae8565b92915050565b600081519050610f6681611ae8565b92915050565b600082601f830112610f7d57600080fd5b8135610f8d848260208601610e98565b91505092915050565b600081519050610fa581611aff565b92915050565b600081359050610fba81611b16565b92915050565b600082601f830112610fd157600080fd5b8135610fe1848260208601610f04565b91505092915050565b600081359050610ff981611b2d565b92915050565b60008151905061100e81611b2d565b92915050565b60006020828403121561102657600080fd5b600061103484828501610f57565b91505092915050565b600080600080600060a0868803121561105557600080fd5b600061106388828901610f42565b955050602061107488828901610f42565b945050604086013567ffffffffffffffff81111561109157600080fd5b61109d88828901610f6c565b935050606086013567ffffffffffffffff8111156110ba57600080fd5b6110c688828901610f6c565b925050608086013567ffffffffffffffff8111156110e357600080fd5b6110ef88828901610fc0565b9150509295509295909350565b6000806000806080858703121561111257600080fd5b600061112087828801610f42565b945050602061113187828801610f42565b935050604061114287828801610fea565b925050606061115387828801610fea565b91505092959194509250565b600080600080600060a0868803121561117757600080fd5b600061118588828901610f42565b955050602061119688828901610f42565b94505060406111a788828901610fea565b93505060606111b888828901610fea565b925050608086013567ffffffffffffffff8111156111d557600080fd5b6111e188828901610fc0565b9150509295509295909350565b60006020828403121561120057600080fd5b600061120e84828501610f96565b91505092915050565b60006020828403121561122957600080fd5b600061123784828501610fab565b91505092915050565b60006020828403121561125257600080fd5b600061126084828501610fea565b91505092915050565b60006020828403121561127b57600080fd5b600061128984828501610fff565b91505092915050565b600061129e8383611420565b60e08301905092915050565b6112b38161186e565b82525050565b6112c28161185c565b82525050565b6112d18161185c565b82525050565b60006112e2826116fc565b6112ec8185611714565b93506112f7836116ec565b8060005b8381101561132857815161130f8882611292565b975061131a83611707565b9250506001810190506112fb565b5085935050505092915050565b61133e81611880565b82525050565b61134d81611880565b82525050565b61135c8161188c565b82525050565b61136b816118e2565b82525050565b600061137e601f83611736565b915061138982611a1b565b602082019050919050565b60006113a1601f83611736565b91506113ac82611a44565b602082019050919050565b60006113c4600083611725565b91506113cf82611a6d565b600082019050919050565b60006113e7601f83611736565b91506113f282611a70565b602082019050919050565b600061140a603183611736565b915061141582611a99565b604082019050919050565b60e08201600082015161143660008501826114ae565b50602082015161144960208501826112b9565b50604082015161145c60408501826112b9565b50606082015161146f60608501826114ae565b50608082015161148260808501826112aa565b5060a082015161149560a08501826114ae565b5060c08201516114a860c0850182611335565b50505050565b6114b7816118d8565b82525050565b6114c6816118d8565b82525050565b60006080820190506114e160008301876112c8565b6114ee60208301866112c8565b6114fb60408301856114bd565b6115086060830184611344565b95945050505050565b600060a08201905061152660008301876112c8565b61153360208301866112c8565b61154060408301856114bd565b61154d6060830184611362565b818103608083015261155e816113b7565b905095945050505050565b600060408201905061157e60008301856112c8565b61158b60208301846114bd565b9392505050565b600060208201905081810360008301526115ac81846112d7565b905092915050565b60006020820190506115c96000830184611344565b92915050565b60006020820190506115e46000830184611353565b92915050565b6000602082019050818103600083015261160381611371565b9050919050565b6000602082019050818103600083015261162381611394565b9050919050565b60006020820190508181036000830152611643816113da565b9050919050565b60006020820190508181036000830152611663816113fd565b9050919050565b6000611674611685565b90506116808282611903565b919050565b6000604051905090565b600067ffffffffffffffff8211156116aa576116a96119db565b5b602082029050602081019050919050565b600067ffffffffffffffff8211156116d6576116d56119db565b5b6116df82611a0a565b9050602081019050919050565b6000819050602082019050919050565b600081519050919050565b6000602082019050919050565b600082825260208201905092915050565b600082825260208201905092915050565b600082825260208201905092915050565b6000611752826118d8565b915061175d836118d8565b9250827fffffffffffffffffffffffffffffffffffffffffffffffffffffffffffffffff038211156117925761179161197d565b5b828201905092915050565b60006117a8826118d8565b91506117b3836118d8565b9250826117c3576117c26119ac565b5b828204905092915050565b60006117d9826118d8565b91506117e4836118d8565b9250817fffffffffffffffffffffffffffffffffffffffffffffffffffffffffffffffff048311821515161561181d5761181c61197d565b5b828202905092915050565b6000611833826118d8565b915061183e836118d8565b9250828210156118515761185061197d565b5b828203905092915050565b6000611867826118b8565b9050919050565b6000611879826118b8565b9050919050565b60008115159050919050565b60007fffffffff0000000000000000000000000000000000000000000000000000000082169050919050565b600073ffffffffffffffffffffffffffffffffffffffff82169050919050565b6000819050919050565b60006118ed826118d8565b9050919050565b82818337600083830152505050565b61190c82611a0a565b810181811067ffffffffffffffff8211171561192b5761192a6119db565b5b80604052505050565b600061193f826118d8565b91507fffffffffffffffffffffffffffffffffffffffffffffffffffffffffffffffff8214156119725761197161197d565b5b600182019050919050565b7f4e487b7100000000000000000000000000000000000000000000000000000000600052601160045260246000fd5b7f4e487b7100000000000000000000000000000000000000000000000000000000600052601260045260246000fd5b7f4e487b7100000000000000000000000000000000000000000000000000000000600052604160045260246000fd5b6000601f19601f8301169050919050565b7f596f752063616e206f6e6c79206c69737420796f7572206f776e206e66747300600082015250565b7f506c656173652073656e642074686520636f727265637420616d6f756e742e00600082015250565b50565b7f5265656e7472616e637947756172643a207265656e7472616e742063616c6c00600082015250565b7f546865206974656d2068617320616c7265616479206265656e20736f6c642c2060008201527f74727920616e6f74686572206974656d2e000000000000000000000000000000602082015250565b611af18161185c565b8114611afc57600080fd5b50565b611b0881611880565b8114611b1357600080fd5b50565b611b1f8161188c565b8114611b2a57600080fd5b50565b611b36816118d8565b8114611b4157600080fd5b5056fea264697066735822122019b1c04813144dc9dcbf22740561f31a4dc9401ef7b477d1313e17a3521cc66f64736f6c63430008040033",
  "linkReferences": {},
  "deployedLinkReferences": {}
}